{
  "contractName": "MultiSigWallet",
  "abi": [
    {
      "constant": true,
      "inputs": [
        {
          "name": "",
          "type": "uint256"
        }
      ],
      "name": "owners",
      "outputs": [
        {
          "name": "",
          "type": "address"
        }
      ],
      "payable": false,
      "type": "function"
    },
    {
      "constant": true,
      "inputs": [
        {
          "name": "",
          "type": "address"
        }
      ],
      "name": "isOwner",
      "outputs": [
        {
          "name": "",
          "type": "bool"
        }
      ],
      "payable": false,
      "type": "function"
    },
    {
      "constant": true,
      "inputs": [
        {
          "name": "",
          "type": "uint256"
        },
        {
          "name": "",
          "type": "address"
        }
      ],
      "name": "confirmations",
      "outputs": [
        {
          "name": "",
          "type": "bool"
        }
      ],
      "payable": false,
      "type": "function"
    },
    {
      "constant": true,
      "inputs": [
        {
          "name": "",
          "type": "uint256"
        }
      ],
      "name": "transactions",
      "outputs": [
        {
          "name": "destination",
          "type": "address"
        },
        {
          "name": "value",
          "type": "uint256"
        },
        {
          "name": "data",
          "type": "bytes"
        },
        {
          "name": "executed",
          "type": "bool"
        }
      ],
      "payable": false,
      "type": "function"
    },
    {
      "constant": true,
      "inputs": [],
      "name": "transactionCount",
      "outputs": [
        {
          "name": "",
          "type": "uint256"
        }
      ],
      "payable": false,
      "type": "function"
    },
    {
      "constant": true,
      "inputs": [],
      "name": "MAX_OWNER_COUNT",
      "outputs": [
        {
          "name": "",
          "type": "uint256"
        }
      ],
      "payable": false,
      "type": "function"
    },
    {
      "constant": true,
      "inputs": [],
      "name": "required",
      "outputs": [
        {
          "name": "",
          "type": "uint256"
        }
      ],
      "payable": false,
      "type": "function"
    },
    {
      "inputs": [
        {
          "name": "_owners",
          "type": "address[]"
        },
        {
          "name": "_required",
          "type": "uint256"
        }
      ],
      "payable": false,
      "type": "constructor"
    },
    {
      "payable": true,
      "type": "fallback"
    },
    {
      "anonymous": false,
      "inputs": [
        {
          "indexed": true,
          "name": "sender",
          "type": "address"
        },
        {
          "indexed": true,
          "name": "transactionId",
          "type": "uint256"
        }
      ],
      "name": "Confirmation",
      "type": "event"
    },
    {
      "anonymous": false,
      "inputs": [
        {
          "indexed": true,
          "name": "sender",
          "type": "address"
        },
        {
          "indexed": true,
          "name": "transactionId",
          "type": "uint256"
        }
      ],
      "name": "Revocation",
      "type": "event"
    },
    {
      "anonymous": false,
      "inputs": [
        {
          "indexed": true,
          "name": "transactionId",
          "type": "uint256"
        }
      ],
      "name": "Submission",
      "type": "event"
    },
    {
      "anonymous": false,
      "inputs": [
        {
          "indexed": true,
          "name": "transactionId",
          "type": "uint256"
        }
      ],
      "name": "Execution",
      "type": "event"
    },
    {
      "anonymous": false,
      "inputs": [
        {
          "indexed": true,
          "name": "transactionId",
          "type": "uint256"
        }
      ],
      "name": "ExecutionFailure",
      "type": "event"
    },
    {
      "anonymous": false,
      "inputs": [
        {
          "indexed": true,
          "name": "sender",
          "type": "address"
        },
        {
          "indexed": false,
          "name": "value",
          "type": "uint256"
        }
      ],
      "name": "Deposit",
      "type": "event"
    },
    {
      "anonymous": false,
      "inputs": [
        {
          "indexed": true,
          "name": "owner",
          "type": "address"
        }
      ],
      "name": "OwnerAddition",
      "type": "event"
    },
    {
      "anonymous": false,
      "inputs": [
        {
          "indexed": true,
          "name": "owner",
          "type": "address"
        }
      ],
      "name": "OwnerRemoval",
      "type": "event"
    },
    {
      "anonymous": false,
      "inputs": [
        {
          "indexed": false,
          "name": "required",
          "type": "uint256"
        }
      ],
      "name": "RequirementChange",
      "type": "event"
    },
    {
      "constant": false,
      "inputs": [
        {
          "name": "owner",
          "type": "address"
        }
      ],
      "name": "addOwner",
      "outputs": [],
      "payable": false,
      "type": "function"
    },
    {
      "constant": false,
      "inputs": [
        {
          "name": "owner",
          "type": "address"
        }
      ],
      "name": "removeOwner",
      "outputs": [],
      "payable": false,
      "type": "function"
    },
    {
      "constant": false,
      "inputs": [
        {
          "name": "owner",
          "type": "address"
        },
        {
          "name": "newOwner",
          "type": "address"
        }
      ],
      "name": "replaceOwner",
      "outputs": [],
      "payable": false,
      "type": "function"
    },
    {
      "constant": false,
      "inputs": [
        {
          "name": "_required",
          "type": "uint256"
        }
      ],
      "name": "changeRequirement",
      "outputs": [],
      "payable": false,
      "type": "function"
    },
    {
      "constant": false,
      "inputs": [
        {
          "name": "destination",
          "type": "address"
        },
        {
          "name": "value",
          "type": "uint256"
        },
        {
          "name": "data",
          "type": "bytes"
        }
      ],
      "name": "submitTransaction",
      "outputs": [
        {
          "name": "transactionId",
          "type": "uint256"
        }
      ],
      "payable": false,
      "type": "function"
    },
    {
      "constant": false,
      "inputs": [
        {
          "name": "transactionId",
          "type": "uint256"
        }
      ],
      "name": "confirmTransaction",
      "outputs": [],
      "payable": false,
      "type": "function"
    },
    {
      "constant": false,
      "inputs": [
        {
          "name": "transactionId",
          "type": "uint256"
        }
      ],
      "name": "revokeConfirmation",
      "outputs": [],
      "payable": false,
      "type": "function"
    },
    {
      "constant": false,
      "inputs": [
        {
          "name": "transactionId",
          "type": "uint256"
        }
      ],
      "name": "executeTransaction",
      "outputs": [],
      "payable": false,
      "type": "function"
    },
    {
      "constant": true,
      "inputs": [
        {
          "name": "transactionId",
          "type": "uint256"
        }
      ],
      "name": "isConfirmed",
      "outputs": [
        {
          "name": "",
          "type": "bool"
        }
      ],
      "payable": false,
      "type": "function"
    },
    {
      "constant": true,
      "inputs": [
        {
          "name": "transactionId",
          "type": "uint256"
        }
      ],
      "name": "getConfirmationCount",
      "outputs": [
        {
          "name": "count",
          "type": "uint256"
        }
      ],
      "payable": false,
      "type": "function"
    },
    {
      "constant": true,
      "inputs": [
        {
          "name": "pending",
          "type": "bool"
        },
        {
          "name": "executed",
          "type": "bool"
        }
      ],
      "name": "getTransactionCount",
      "outputs": [
        {
          "name": "count",
          "type": "uint256"
        }
      ],
      "payable": false,
      "type": "function"
    },
    {
      "constant": true,
      "inputs": [],
      "name": "getOwners",
      "outputs": [
        {
          "name": "",
          "type": "address[]"
        }
      ],
      "payable": false,
      "type": "function"
    },
    {
      "constant": true,
      "inputs": [
        {
          "name": "transactionId",
          "type": "uint256"
        }
      ],
      "name": "getConfirmations",
      "outputs": [
        {
          "name": "_confirmations",
          "type": "address[]"
        }
      ],
      "payable": false,
      "type": "function"
    },
    {
      "constant": true,
      "inputs": [
        {
          "name": "from",
          "type": "uint256"
        },
        {
          "name": "to",
          "type": "uint256"
        },
        {
          "name": "pending",
          "type": "bool"
        },
        {
          "name": "executed",
          "type": "bool"
        }
      ],
      "name": "getTransactionIds",
      "outputs": [
        {
          "name": "_transactionIds",
          "type": "uint256[]"
        }
      ],
      "payable": false,
      "type": "function"
    }
  ],
  "bytecode": "0x606060405234156200001057600080fd5b6040516200240138038062002401833981016040528080518201919060200180519060200190919050505b600082518260328211158015620000525750818111155b801562000060575060008114155b80156200006e575060008214155b15156200007a57600080fd5b600092505b8451831015620001b6576002600086858151811015156200009c57fe5b9060200190602002015173ffffffffffffffffffffffffffffffffffffffff1673ffffffffffffffffffffffffffffffffffffffff16815260200190815260200160002060009054906101000a900460ff161580156200012b5750600085848151811015156200010857fe5b9060200190602002015173ffffffffffffffffffffffffffffffffffffffff1614155b15156200013757600080fd5b60016002600087868151811015156200014c57fe5b9060200190602002015173ffffffffffffffffffffffffffffffffffffffff1673ffffffffffffffffffffffffffffffffffffffff16815260200190815260200160002060006101000a81548160ff0219169083151502179055505b82806001019350506200007f565b8460039080519060200190620001ce929190620001e3565b50836004819055505b5b5050505050620002b8565b8280548282559060005260206000209081019282156200025f579160200282015b828111156200025e5782518260006101000a81548173ffffffffffffffffffffffffffffffffffffffff021916908373ffffffffffffffffffffffffffffffffffffffff1602179055509160200191906001019062000204565b5b5090506200026e919062000272565b5090565b620002b591905b80821115620002b157600081816101000a81549073ffffffffffffffffffffffffffffffffffffffff02191690555060010162000279565b5090565b90565b61213980620002c86000396000f3006060604052361561011b576000357c0100000000000000000000000000000000000000000000000000000000900463ffffffff168063025e7c2714610177578063173825d9146101da57806320ea8d86146102135780632f54bf6e146102365780633411c81c1461028757806354741525146102e15780637065cb4814610325578063784547a71461035e5780638b51d13f146103995780639ace38c2146103d0578063a0e67e2b146104ce578063a8abe69a14610539578063b5dc40c3146105d1578063b77bf6001461064a578063ba51a6df14610673578063c01a8c8414610696578063c6427474146106b9578063d74f8edd14610752578063dc8452cd1461077b578063e20056e6146107a4578063ee22610b146107fc575b5b6000341115610174573373ffffffffffffffffffffffffffffffffffffffff167fe1fffcc4923d04b559f4d29a8bfc6cda04eb5b0d3c460751c2402c5c5cc9109c346040518082815260200191505060405180910390a25b5b005b341561018257600080fd5b610198600480803590602001909190505061081f565b604051808273ffffffffffffffffffffffffffffffffffffffff1673ffffffffffffffffffffffffffffffffffffffff16815260200191505060405180910390f35b34156101e557600080fd5b610211600480803573ffffffffffffffffffffffffffffffffffffffff1690602001909190505061085f565b005b341561021e57600080fd5b6102346004808035906020019091905050610b02565b005b341561024157600080fd5b61026d600480803573ffffffffffffffffffffffffffffffffffffffff16906020019091905050610cae565b604051808215151515815260200191505060405180910390f35b341561029257600080fd5b6102c7600480803590602001909190803573ffffffffffffffffffffffffffffffffffffffff16906020019091905050610cce565b604051808215151515815260200191505060405180910390f35b34156102ec57600080fd5b61030f600480803515159060200190919080351515906020019091905050610cfd565b6040518082815260200191505060405180910390f35b341561033057600080fd5b61035c600480803573ffffffffffffffffffffffffffffffffffffffff16906020019091905050610d91565b005b341561036957600080fd5b61037f6004808035906020019091905050610f99565b604051808215151515815260200191505060405180910390f35b34156103a457600080fd5b6103ba6004808035906020019091905050611081565b6040518082815260200191505060405180910390f35b34156103db57600080fd5b6103f16004808035906020019091905050611150565b604051808573ffffffffffffffffffffffffffffffffffffffff1673ffffffffffffffffffffffffffffffffffffffff16815260200184815260200180602001831515151581526020018281038252848181546001816001161561010002031660029004815260200191508054600181600116156101000203166002900480156104bc5780601f10610491576101008083540402835291602001916104bc565b820191906000526020600020905b81548152906001019060200180831161049f57829003601f168201915b50509550505050505060405180910390f35b34156104d957600080fd5b6104e16111ac565b6040518080602001828103825283818151815260200191508051906020019060200280838360005b838110156105255780820151818401525b602081019050610509565b505050509050019250505060405180910390f35b341561054457600080fd5b610579600480803590602001909190803590602001909190803515159060200190919080351515906020019091905050611241565b6040518080602001828103825283818151815260200191508051906020019060200280838360005b838110156105bd5780820151818401525b6020810190506105a1565b505050509050019250505060405180910390f35b34156105dc57600080fd5b6105f260048080359060200190919050506113a2565b6040518080602001828103825283818151815260200191508051906020019060200280838360005b838110156106365780820151818401525b60208101905061061a565b505050509050019250505060405180910390f35b341561065557600080fd5b61065d6115d3565b6040518082815260200191505060405180910390f35b341561067e57600080fd5b61069460048080359060200190919050506115d9565b005b34156106a157600080fd5b6106b76004808035906020019091905050611696565b005b34156106c457600080fd5b61073c600480803573ffffffffffffffffffffffffffffffffffffffff1690602001909190803590602001909190803590602001908201803590602001908080601f01602080910402602001604051908101604052809392919081815260200183838082843782019150505050505091905050611877565b6040518082815260200191505060405180910390f35b341561075d57600080fd5b610765611897565b6040518082815260200191505060405180910390f35b341561078657600080fd5b61078e61189c565b6040518082815260200191505060405180910390f35b34156107af57600080fd5b6107fa600480803573ffffffffffffffffffffffffffffffffffffffff1690602001909190803573ffffffffffffffffffffffffffffffffffffffff169060200190919050506118a2565b005b341561080757600080fd5b61081d6004808035906020019091905050611bc0565b005b60038181548110151561082e57fe5b906000526020600020900160005b915054906101000a900473ffffffffffffffffffffffffffffffffffffffff1681565b60003073ffffffffffffffffffffffffffffffffffffffff163373ffffffffffffffffffffffffffffffffffffffff1614151561089b57600080fd5b81600260008273ffffffffffffffffffffffffffffffffffffffff1673ffffffffffffffffffffffffffffffffffffffff16815260200190815260200160002060009054906101000a900460ff1615156108f457600080fd5b6000600260008573ffffffffffffffffffffffffffffffffffffffff1673ffffffffffffffffffffffffffffffffffffffff16815260200190815260200160002060006101000a81548160ff021916908315150217905550600091505b600160038054905003821015610a80578273ffffffffffffffffffffffffffffffffffffffff1660038381548110151561098757fe5b906000526020600020900160005b9054906101000a900473ffffffffffffffffffffffffffffffffffffffff1673ffffffffffffffffffffffffffffffffffffffff161415610a725760036001600380549050038154811015156109e757fe5b906000526020600020900160005b9054906101000a900473ffffffffffffffffffffffffffffffffffffffff16600383815481101515610a2357fe5b906000526020600020900160005b6101000a81548173ffffffffffffffffffffffffffffffffffffffff021916908373ffffffffffffffffffffffffffffffffffffffff160217905550610a80565b5b8180600101925050610951565b6001600381818054905003915081610a989190611fe8565b506003805490506004541115610ab757610ab66003805490506115d9565b5b8273ffffffffffffffffffffffffffffffffffffffff167f8001553a916ef2f495d26a907cc54d96ed840d7bda71e73194bf5a9df7a76b9060405160405180910390a25b5b505b5050565b33600260008273ffffffffffffffffffffffffffffffffffffffff1673ffffffffffffffffffffffffffffffffffffffff16815260200190815260200160002060009054906101000a900460ff161515610b5b57600080fd5b81336001600083815260200190815260200160002060008273ffffffffffffffffffffffffffffffffffffffff1673ffffffffffffffffffffffffffffffffffffffff16815260200190815260200160002060009054906101000a900460ff161515610bc657600080fd5b8360008082815260200190815260200160002060030160009054906101000a900460ff16151515610bf657600080fd5b60006001600087815260200190815260200160002060003373ffffffffffffffffffffffffffffffffffffffff1673ffffffffffffffffffffffffffffffffffffffff16815260200190815260200160002060006101000a81548160ff021916908315150217905550843373ffffffffffffffffffffffffffffffffffffffff167ff6a317157440607f36269043eb55f1287a5a19ba2216afeab88cd46cbcfb88e960405160405180910390a35b5b505b50505b5050565b60026020528060005260406000206000915054906101000a900460ff1681565b60016020528160005260406000206020528060005260406000206000915091509054906101000a900460ff1681565b600080600090505b600554811015610d8957838015610d3c575060008082815260200190815260200160002060030160009054906101000a900460ff16155b80610d6f5750828015610d6e575060008082815260200190815260200160002060030160009054906101000a900460ff165b5b15610d7b576001820191505b5b8080600101915050610d05565b5b5092915050565b3073ffffffffffffffffffffffffffffffffffffffff163373ffffffffffffffffffffffffffffffffffffffff16141515610dcb57600080fd5b80600260008273ffffffffffffffffffffffffffffffffffffffff1673ffffffffffffffffffffffffffffffffffffffff16815260200190815260200160002060009054906101000a900460ff16151515610e2557600080fd5b8160008173ffffffffffffffffffffffffffffffffffffffff1614151515610e4c57600080fd5b60016003805490500160045460328211158015610e695750818111155b8015610e76575060008114155b8015610e83575060008214155b1515610e8e57600080fd5b6001600260008773ffffffffffffffffffffffffffffffffffffffff1673ffffffffffffffffffffffffffffffffffffffff16815260200190815260200160002060006101000a81548160ff02191690831515021790555060038054806001018281610efa9190612014565b916000526020600020900160005b87909190916101000a81548173ffffffffffffffffffffffffffffffffffffffff021916908373ffffffffffffffffffffffffffffffffffffffff160217905550508473ffffffffffffffffffffffffffffffffffffffff167ff39e6e1eb0edcf53c221607b54b00cd28f3196fed0a24994dc308b8f611b682d60405160405180910390a25b5b50505b505b505b50565b6000806000809150600090505b60038054905081101561107957600160008581526020019081526020016000206000600383815481101515610fd757fe5b906000526020600020900160005b9054906101000a900473ffffffffffffffffffffffffffffffffffffffff1673ffffffffffffffffffffffffffffffffffffffff1673ffffffffffffffffffffffffffffffffffffffff16815260200190815260200160002060009054906101000a900460ff1615611058576001820191505b60045482141561106b576001925061107a565b5b8080600101915050610fa6565b5b5050919050565b600080600090505b600380549050811015611149576001600084815260200190815260200160002060006003838154811015156110ba57fe5b906000526020600020900160005b9054906101000a900473ffffffffffffffffffffffffffffffffffffffff1673ffffffffffffffffffffffffffffffffffffffff1673ffffffffffffffffffffffffffffffffffffffff16815260200190815260200160002060009054906101000a900460ff161561113b576001820191505b5b8080600101915050611089565b5b50919050565b60006020528060005260406000206000915090508060000160009054906101000a900473ffffffffffffffffffffffffffffffffffffffff169080600101549080600201908060030160009054906101000a900460ff16905084565b6111b4612040565b600380548060200260200160405190810160405280929190818152602001828054801561123657602002820191906000526020600020905b8160009054906101000a900473ffffffffffffffffffffffffffffffffffffffff1673ffffffffffffffffffffffffffffffffffffffff16815260200190600101908083116111ec575b505050505090505b90565b611249612054565b611251612054565b6000806005546040518059106112645750595b908082528060200260200182016040525b50925060009150600090505b600554811015611322578580156112b8575060008082815260200190815260200160002060030160009054906101000a900460ff16155b806112eb57508480156112ea575060008082815260200190815260200160002060030160009054906101000a900460ff165b5b15611314578083838151811015156112ff57fe5b90602001906020020181815250506001820191505b5b8080600101915050611281565b8787036040518059106113325750595b908082528060200260200182016040525b5093508790505b8681101561139657828181518110151561136057fe5b906020019060200201518489830381518110151561137a57fe5b90602001906020020181815250505b808060010191505061134a565b5b505050949350505050565b6113aa612040565b6113b2612040565b6000806003805490506040518059106113c85750595b908082528060200260200182016040525b50925060009150600090505b60038054905081101561152b5760016000868152602001908152602001600020600060038381548110151561141657fe5b906000526020600020900160005b9054906101000a900473ffffffffffffffffffffffffffffffffffffffff1673ffffffffffffffffffffffffffffffffffffffff1673ffffffffffffffffffffffffffffffffffffffff16815260200190815260200160002060009054906101000a900460ff161561151d5760038181548110151561149f57fe5b906000526020600020900160005b9054906101000a900473ffffffffffffffffffffffffffffffffffffffff1683838151811015156114da57fe5b9060200190602002019073ffffffffffffffffffffffffffffffffffffffff16908173ffffffffffffffffffffffffffffffffffffffff16815250506001820191505b5b80806001019150506113e5565b816040518059106115395750595b908082528060200260200182016040525b509350600090505b818110156115ca57828181518110151561156857fe5b90602001906020020151848281518110151561158057fe5b9060200190602002019073ffffffffffffffffffffffffffffffffffffffff16908173ffffffffffffffffffffffffffffffffffffffff16815250505b8080600101915050611552565b5b505050919050565b60055481565b3073ffffffffffffffffffffffffffffffffffffffff163373ffffffffffffffffffffffffffffffffffffffff1614151561161357600080fd5b600380549050816032821115801561162b5750818111155b8015611638575060008114155b8015611645575060008214155b151561165057600080fd5b826004819055507fa3f1ee9126a074d9326c682f561767f710e927faa811f7a99829d49dc421797a836040518082815260200191505060405180910390a15b5b50505b50565b33600260008273ffffffffffffffffffffffffffffffffffffffff1673ffffffffffffffffffffffffffffffffffffffff16815260200190815260200160002060009054906101000a900460ff1615156116ef57600080fd5b81600080600083815260200190815260200160002060000160009054906101000a900473ffffffffffffffffffffffffffffffffffffffff1673ffffffffffffffffffffffffffffffffffffffff161415151561174b57600080fd5b82336001600083815260200190815260200160002060008273ffffffffffffffffffffffffffffffffffffffff1673ffffffffffffffffffffffffffffffffffffffff16815260200190815260200160002060009054906101000a900460ff161515156117b757600080fd5b600180600087815260200190815260200160002060003373ffffffffffffffffffffffffffffffffffffffff1673ffffffffffffffffffffffffffffffffffffffff16815260200190815260200160002060006101000a81548160ff021916908315150217905550843373ffffffffffffffffffffffffffffffffffffffff167f4a504a94899432a9846e1aa406dceb1bcfd538bb839071d49d1e5e23f5be30ef60405160405180910390a361186c85611bc0565b5b5b50505b505b5050565b6000611884848484611e6c565b905061188f81611696565b5b9392505050565b603281565b60045481565b60003073ffffffffffffffffffffffffffffffffffffffff163373ffffffffffffffffffffffffffffffffffffffff161415156118de57600080fd5b82600260008273ffffffffffffffffffffffffffffffffffffffff1673ffffffffffffffffffffffffffffffffffffffff16815260200190815260200160002060009054906101000a900460ff16151561193757600080fd5b82600260008273ffffffffffffffffffffffffffffffffffffffff1673ffffffffffffffffffffffffffffffffffffffff16815260200190815260200160002060009054906101000a900460ff1615151561199157600080fd5b600092505b600380549050831015611a7f578473ffffffffffffffffffffffffffffffffffffffff166003848154811015156119c957fe5b906000526020600020900160005b9054906101000a900473ffffffffffffffffffffffffffffffffffffffff1673ffffffffffffffffffffffffffffffffffffffff161415611a715783600384815481101515611a2257fe5b906000526020600020900160005b6101000a81548173ffffffffffffffffffffffffffffffffffffffff021916908373ffffffffffffffffffffffffffffffffffffffff160217905550611a7f565b5b8280600101935050611996565b6000600260008773ffffffffffffffffffffffffffffffffffffffff1673ffffffffffffffffffffffffffffffffffffffff16815260200190815260200160002060006101000a81548160ff0219169083151502179055506001600260008673ffffffffffffffffffffffffffffffffffffffff1673ffffffffffffffffffffffffffffffffffffffff16815260200190815260200160002060006101000a81548160ff0219169083151502179055508473ffffffffffffffffffffffffffffffffffffffff167f8001553a916ef2f495d26a907cc54d96ed840d7bda71e73194bf5a9df7a76b9060405160405180910390a28373ffffffffffffffffffffffffffffffffffffffff167ff39e6e1eb0edcf53c221607b54b00cd28f3196fed0a24994dc308b8f611b682d60405160405180910390a25b5b505b505b505050565b600033600260008273ffffffffffffffffffffffffffffffffffffffff1673ffffffffffffffffffffffffffffffffffffffff16815260200190815260200160002060009054906101000a900460ff161515611c1b57600080fd5b82336001600083815260200190815260200160002060008273ffffffffffffffffffffffffffffffffffffffff1673ffffffffffffffffffffffffffffffffffffffff16815260200190815260200160002060009054906101000a900460ff161515611c8657600080fd5b8460008082815260200190815260200160002060030160009054906101000a900460ff16151515611cb657600080fd5b611cbf86610f99565b15611e6057600080878152602001908152602001600020945060018560030160006101000a81548160ff021916908315150217905550611ddd8560000160009054906101000a900473ffffffffffffffffffffffffffffffffffffffff16866001015487600201805460018160011615610100020316600290049050886002018054600181600116156101000203166002900480601f016020809104026020016040519081016040528092919081815260200182805460018160011615610100020316600290048015611dd35780601f10611da857610100808354040283529160200191611dd3565b820191906000526020600020905b815481529060010190602001808311611db657829003601f168201915b5050505050611fc0565b15611e1457857f33e13ecb54c3076d8e8bb8c2881800a4d972b792045ffae98fdf46df365fed7560405160405180910390a2611e5f565b857f526441bb6c1aba3c9a4a6ca1d6545da9c2333c8c48343ef398eb858d72b7923660405160405180910390a260008560030160006101000a81548160ff0219169083151502179055505b5b5b5b505b50505b505050565b60008360008173ffffffffffffffffffffffffffffffffffffffff1614151515611e9557600080fd5b60055491506080604051908101604052808673ffffffffffffffffffffffffffffffffffffffff1681526020018581526020018481526020016000151581525060008084815260200190815260200160002060008201518160000160006101000a81548173ffffffffffffffffffffffffffffffffffffffff021916908373ffffffffffffffffffffffffffffffffffffffff160217905550602082015181600101556040820151816002019080519060200190611f54929190612068565b5060608201518160030160006101000a81548160ff0219169083151502179055509050506001600560008282540192505081905550817fc0ba8fe4b176c1714197d43b9cc6bcf797a4a7461c5fe8d0ef6e184ae7601e5160405160405180910390a25b5b509392505050565b6000806040516020840160008287838a8c6187965a03f1925050508091505b50949350505050565b81548183558181151161200f5781836000526020600020918201910161200e91906120e8565b5b505050565b81548183558181151161203b5781836000526020600020918201910161203a91906120e8565b5b505050565b602060405190810160405280600081525090565b602060405190810160405280600081525090565b828054600181600116156101000203166002900490600052602060002090601f016020900481019282601f106120a957805160ff19168380011785556120d7565b828001600101855582156120d7579182015b828111156120d65782518255916020019190600101906120bb565b5b5090506120e491906120e8565b5090565b61210a91905b808211156121065760008160009055506001016120ee565b5090565b905600a165627a7a72305820faea339a6024abbd8b4dee5d2a06257837781eb54e5de037906d6d479daa9d4f0029",
  "source": "/**\r\n *Submitted for verification at snowtrace.io on 2021-11-02\r\n*/\r\n\r\n// File: contracts/MultiSigWallet.sol\r\n\r\npragma solidity ^0.4.15;\r\n\r\n\r\n/// @title Multisignature wallet - Allows multiple parties to agree on transactions before execution.\r\n/// @author Stefan George - <stefan.george@consensys.net>\r\ncontract MultiSigWallet {\r\n\r\n    /*\r\n     *  Events\r\n     */\r\n    event Confirmation(address indexed sender, uint indexed transactionId);\r\n    event Revocation(address indexed sender, uint indexed transactionId);\r\n    event Submission(uint indexed transactionId);\r\n    event Execution(uint indexed transactionId);\r\n    event ExecutionFailure(uint indexed transactionId);\r\n    event Deposit(address indexed sender, uint value);\r\n    event OwnerAddition(address indexed owner);\r\n    event OwnerRemoval(address indexed owner);\r\n    event RequirementChange(uint required);\r\n\r\n    /*\r\n     *  Constants\r\n     */\r\n    uint constant public MAX_OWNER_COUNT = 50;\r\n\r\n    /*\r\n     *  Storage\r\n     */\r\n    mapping (uint => Transaction) public transactions;\r\n    mapping (uint => mapping (address => bool)) public confirmations;\r\n    mapping (address => bool) public isOwner;\r\n    address[] public owners;\r\n    uint public required;\r\n    uint public transactionCount;\r\n\r\n    struct Transaction {\r\n        address destination;\r\n        uint value;\r\n        bytes data;\r\n        bool executed;\r\n    }\r\n\r\n    /*\r\n     *  Modifiers\r\n     */\r\n    modifier onlyWallet() {\r\n        require(msg.sender == address(this));\r\n        _;\r\n    }\r\n\r\n    modifier ownerDoesNotExist(address owner) {\r\n        require(!isOwner[owner]);\r\n        _;\r\n    }\r\n\r\n    modifier ownerExists(address owner) {\r\n        require(isOwner[owner]);\r\n        _;\r\n    }\r\n\r\n    modifier transactionExists(uint transactionId) {\r\n        require(transactions[transactionId].destination != 0);\r\n        _;\r\n    }\r\n\r\n    modifier confirmed(uint transactionId, address owner) {\r\n        require(confirmations[transactionId][owner]);\r\n        _;\r\n    }\r\n\r\n    modifier notConfirmed(uint transactionId, address owner) {\r\n        require(!confirmations[transactionId][owner]);\r\n        _;\r\n    }\r\n\r\n    modifier notExecuted(uint transactionId) {\r\n        require(!transactions[transactionId].executed);\r\n        _;\r\n    }\r\n\r\n    modifier notNull(address _address) {\r\n        require(_address != 0);\r\n        _;\r\n    }\r\n\r\n    modifier validRequirement(uint ownerCount, uint _required) {\r\n        require(ownerCount <= MAX_OWNER_COUNT\r\n            && _required <= ownerCount\r\n            && _required != 0\r\n            && ownerCount != 0);\r\n        _;\r\n    }\r\n\r\n    /// @dev Fallback function allows to deposit ether.\r\n    function()\r\n        payable\r\n    {\r\n        if (msg.value > 0)\r\n            Deposit(msg.sender, msg.value);\r\n    }\r\n\r\n    /*\r\n     * Public functions\r\n     */\r\n    /// @dev Contract constructor sets initial owners and required number of confirmations.\r\n    /// @param _owners List of initial owners.\r\n    /// @param _required Number of required confirmations.\r\n    function MultiSigWallet(address[] _owners, uint _required)\r\n        public\r\n        validRequirement(_owners.length, _required)\r\n    {\r\n        for (uint i=0; i<_owners.length; i++) {\r\n            require(!isOwner[_owners[i]] && _owners[i] != 0);\r\n            isOwner[_owners[i]] = true;\r\n        }\r\n        owners = _owners;\r\n        required = _required;\r\n    }\r\n\r\n    /// @dev Allows to add a new owner. Transaction has to be sent by wallet.\r\n    /// @param owner Address of new owner.\r\n    function addOwner(address owner)\r\n        public\r\n        onlyWallet\r\n        ownerDoesNotExist(owner)\r\n        notNull(owner)\r\n        validRequirement(owners.length + 1, required)\r\n    {\r\n        isOwner[owner] = true;\r\n        owners.push(owner);\r\n        OwnerAddition(owner);\r\n    }\r\n\r\n    /// @dev Allows to remove an owner. Transaction has to be sent by wallet.\r\n    /// @param owner Address of owner.\r\n    function removeOwner(address owner)\r\n        public\r\n        onlyWallet\r\n        ownerExists(owner)\r\n    {\r\n        isOwner[owner] = false;\r\n        for (uint i=0; i<owners.length - 1; i++)\r\n            if (owners[i] == owner) {\r\n                owners[i] = owners[owners.length - 1];\r\n                break;\r\n            }\r\n        owners.length -= 1;\r\n        if (required > owners.length)\r\n            changeRequirement(owners.length);\r\n        OwnerRemoval(owner);\r\n    }\r\n\r\n    /// @dev Allows to replace an owner with a new owner. Transaction has to be sent by wallet.\r\n    /// @param owner Address of owner to be replaced.\r\n    /// @param newOwner Address of new owner.\r\n    function replaceOwner(address owner, address newOwner)\r\n        public\r\n        onlyWallet\r\n        ownerExists(owner)\r\n        ownerDoesNotExist(newOwner)\r\n    {\r\n        for (uint i=0; i<owners.length; i++)\r\n            if (owners[i] == owner) {\r\n                owners[i] = newOwner;\r\n                break;\r\n            }\r\n        isOwner[owner] = false;\r\n        isOwner[newOwner] = true;\r\n        OwnerRemoval(owner);\r\n        OwnerAddition(newOwner);\r\n    }\r\n\r\n    /// @dev Allows to change the number of required confirmations. Transaction has to be sent by wallet.\r\n    /// @param _required Number of required confirmations.\r\n    function changeRequirement(uint _required)\r\n        public\r\n        onlyWallet\r\n        validRequirement(owners.length, _required)\r\n    {\r\n        required = _required;\r\n        RequirementChange(_required);\r\n    }\r\n\r\n    /// @dev Allows an owner to submit and confirm a transaction.\r\n    /// @param destination Transaction target address.\r\n    /// @param value Transaction ether value.\r\n    /// @param data Transaction data payload.\r\n    /// @return Returns transaction ID.\r\n    function submitTransaction(address destination, uint value, bytes data)\r\n        public\r\n        returns (uint transactionId)\r\n    {\r\n        transactionId = addTransaction(destination, value, data);\r\n        confirmTransaction(transactionId);\r\n    }\r\n\r\n    /// @dev Allows an owner to confirm a transaction.\r\n    /// @param transactionId Transaction ID.\r\n    function confirmTransaction(uint transactionId)\r\n        public\r\n        ownerExists(msg.sender)\r\n        transactionExists(transactionId)\r\n        notConfirmed(transactionId, msg.sender)\r\n    {\r\n        confirmations[transactionId][msg.sender] = true;\r\n        Confirmation(msg.sender, transactionId);\r\n        executeTransaction(transactionId);\r\n    }\r\n\r\n    /// @dev Allows an owner to revoke a confirmation for a transaction.\r\n    /// @param transactionId Transaction ID.\r\n    function revokeConfirmation(uint transactionId)\r\n        public\r\n        ownerExists(msg.sender)\r\n        confirmed(transactionId, msg.sender)\r\n        notExecuted(transactionId)\r\n    {\r\n        confirmations[transactionId][msg.sender] = false;\r\n        Revocation(msg.sender, transactionId);\r\n    }\r\n\r\n    /// @dev Allows anyone to execute a confirmed transaction.\r\n    /// @param transactionId Transaction ID.\r\n    function executeTransaction(uint transactionId)\r\n        public\r\n        ownerExists(msg.sender)\r\n        confirmed(transactionId, msg.sender)\r\n        notExecuted(transactionId)\r\n    {\r\n        if (isConfirmed(transactionId)) {\r\n            Transaction storage txn = transactions[transactionId];\r\n            txn.executed = true;\r\n            if (external_call(txn.destination, txn.value, txn.data.length, txn.data))\r\n                Execution(transactionId);\r\n            else {\r\n                ExecutionFailure(transactionId);\r\n                txn.executed = false;\r\n            }\r\n        }\r\n    }\r\n\r\n    // call has been separated into its own function in order to take advantage\r\n    // of the Solidity's code generator to produce a loop that copies tx.data into memory.\r\n    function external_call(address destination, uint value, uint dataLength, bytes data) internal returns (bool) {\r\n        bool result;\r\n        assembly {\r\n            let x := mload(0x40)   // \"Allocate\" memory for output (0x40 is where \"free memory\" pointer is stored by convention)\r\n            let d := add(data, 32) // First 32 bytes are the padded length of data, so exclude that\r\n            result := call(\r\n                sub(gas, 34710),   // 34710 is the value that solidity is currently emitting\r\n                                   // It includes callGas (700) + callVeryLow (3, to pay for SUB) + callValueTransferGas (9000) +\r\n                                   // callNewAccountGas (25000, in case the destination address does not exist and needs creating)\r\n                destination,\r\n                value,\r\n                d,\r\n                dataLength,        // Size of the input (in bytes) - this is what fixes the padding problem\r\n                x,\r\n                0                  // Output is ignored, therefore the output size is zero\r\n            )\r\n        }\r\n        return result;\r\n    }\r\n\r\n    /// @dev Returns the confirmation status of a transaction.\r\n    /// @param transactionId Transaction ID.\r\n    /// @return Confirmation status.\r\n    function isConfirmed(uint transactionId)\r\n        public\r\n        constant\r\n        returns (bool)\r\n    {\r\n        uint count = 0;\r\n        for (uint i=0; i<owners.length; i++) {\r\n            if (confirmations[transactionId][owners[i]])\r\n                count += 1;\r\n            if (count == required)\r\n                return true;\r\n        }\r\n    }\r\n\r\n    /*\r\n     * Internal functions\r\n     */\r\n    /// @dev Adds a new transaction to the transaction mapping, if transaction does not exist yet.\r\n    /// @param destination Transaction target address.\r\n    /// @param value Transaction ether value.\r\n    /// @param data Transaction data payload.\r\n    /// @return Returns transaction ID.\r\n    function addTransaction(address destination, uint value, bytes data)\r\n        internal\r\n        notNull(destination)\r\n        returns (uint transactionId)\r\n    {\r\n        transactionId = transactionCount;\r\n        transactions[transactionId] = Transaction({\r\n            destination: destination,\r\n            value: value,\r\n            data: data,\r\n            executed: false\r\n        });\r\n        transactionCount += 1;\r\n        Submission(transactionId);\r\n    }\r\n\r\n    /*\r\n     * Web3 call functions\r\n     */\r\n    /// @dev Returns number of confirmations of a transaction.\r\n    /// @param transactionId Transaction ID.\r\n    /// @return Number of confirmations.\r\n    function getConfirmationCount(uint transactionId)\r\n        public\r\n        constant\r\n        returns (uint count)\r\n    {\r\n        for (uint i=0; i<owners.length; i++)\r\n            if (confirmations[transactionId][owners[i]])\r\n                count += 1;\r\n    }\r\n\r\n    /// @dev Returns total number of transactions after filers are applied.\r\n    /// @param pending Include pending transactions.\r\n    /// @param executed Include executed transactions.\r\n    /// @return Total number of transactions after filters are applied.\r\n    function getTransactionCount(bool pending, bool executed)\r\n        public\r\n        constant\r\n        returns (uint count)\r\n    {\r\n        for (uint i=0; i<transactionCount; i++)\r\n            if (   pending && !transactions[i].executed\r\n                || executed && transactions[i].executed)\r\n                count += 1;\r\n    }\r\n\r\n    /// @dev Returns list of owners.\r\n    /// @return List of owner addresses.\r\n    function getOwners()\r\n        public\r\n        constant\r\n        returns (address[])\r\n    {\r\n        return owners;\r\n    }\r\n\r\n    /// @dev Returns array with owner addresses, which confirmed transaction.\r\n    /// @param transactionId Transaction ID.\r\n    /// @return Returns array of owner addresses.\r\n    function getConfirmations(uint transactionId)\r\n        public\r\n        constant\r\n        returns (address[] _confirmations)\r\n    {\r\n        address[] memory confirmationsTemp = new address[](owners.length);\r\n        uint count = 0;\r\n        uint i;\r\n        for (i=0; i<owners.length; i++)\r\n            if (confirmations[transactionId][owners[i]]) {\r\n                confirmationsTemp[count] = owners[i];\r\n                count += 1;\r\n            }\r\n        _confirmations = new address[](count);\r\n        for (i=0; i<count; i++)\r\n            _confirmations[i] = confirmationsTemp[i];\r\n    }\r\n\r\n    /// @dev Returns list of transaction IDs in defined range.\r\n    /// @param from Index start position of transaction array.\r\n    /// @param to Index end position of transaction array.\r\n    /// @param pending Include pending transactions.\r\n    /// @param executed Include executed transactions.\r\n    /// @return Returns array of transaction IDs.\r\n    function getTransactionIds(uint from, uint to, bool pending, bool executed)\r\n        public\r\n        constant\r\n        returns (uint[] _transactionIds)\r\n    {\r\n        uint[] memory transactionIdsTemp = new uint[](transactionCount);\r\n        uint count = 0;\r\n        uint i;\r\n        for (i=0; i<transactionCount; i++)\r\n            if (   pending && !transactions[i].executed\r\n                || executed && transactions[i].executed)\r\n            {\r\n                transactionIdsTemp[count] = i;\r\n                count += 1;\r\n            }\r\n        _transactionIds = new uint[](to - from);\r\n        for (i=from; i<to; i++)\r\n            _transactionIds[i - from] = transactionIdsTemp[i];\r\n    }\r\n}\r\n\r\n// File: contracts/MultiSigWalletWithDailyLimit.sol\r\n\r\npragma solidity ^0.4.15;\r\n\r\n\r\n\r\n/// @title Multisignature wallet with daily limit - Allows an owner to withdraw a daily limit without multisig.\r\n/// @author Stefan George - <stefan.george@consensys.net>\r\ncontract MultiSigWalletWithDailyLimit is MultiSigWallet {\r\n\r\n    /*\r\n     *  Events\r\n     */\r\n    event DailyLimitChange(uint dailyLimit);\r\n\r\n    /*\r\n     *  Storage\r\n     */\r\n    uint public dailyLimit;\r\n    uint public lastDay;\r\n    uint public spentToday;\r\n\r\n    /*\r\n     * Public functions\r\n     */\r\n    /// @dev Contract constructor sets initial owners, required number of confirmations and daily withdraw limit.\r\n    /// @param _owners List of initial owners.\r\n    /// @param _required Number of required confirmations.\r\n    /// @param _dailyLimit Amount in wei, which can be withdrawn without confirmations on a daily basis.\r\n    function MultiSigWalletWithDailyLimit(address[] _owners, uint _required, uint _dailyLimit)\r\n        public\r\n        MultiSigWallet(_owners, _required)\r\n    {\r\n        dailyLimit = _dailyLimit;\r\n    }\r\n\r\n    /// @dev Allows to change the daily limit. Transaction has to be sent by wallet.\r\n    /// @param _dailyLimit Amount in wei.\r\n    function changeDailyLimit(uint _dailyLimit)\r\n        public\r\n        onlyWallet\r\n    {\r\n        dailyLimit = _dailyLimit;\r\n        DailyLimitChange(_dailyLimit);\r\n    }\r\n\r\n    /// @dev Allows anyone to execute a confirmed transaction or ether withdraws until daily limit is reached.\r\n    /// @param transactionId Transaction ID.\r\n    function executeTransaction(uint transactionId)\r\n        public\r\n        ownerExists(msg.sender)\r\n        confirmed(transactionId, msg.sender)\r\n        notExecuted(transactionId)\r\n    {\r\n        Transaction storage txn = transactions[transactionId];\r\n        bool _confirmed = isConfirmed(transactionId);\r\n        if (_confirmed || txn.data.length == 0 && isUnderLimit(txn.value)) {\r\n            txn.executed = true;\r\n            if (!_confirmed)\r\n                spentToday += txn.value;\r\n            if (external_call(txn.destination, txn.value, txn.data.length, txn.data))\r\n                Execution(transactionId);\r\n            else {\r\n                ExecutionFailure(transactionId);\r\n                txn.executed = false;\r\n                if (!_confirmed)\r\n                    spentToday -= txn.value;\r\n            }\r\n        }\r\n    }\r\n\r\n    /*\r\n     * Internal functions\r\n     */\r\n    /// @dev Returns if amount is within daily limit and resets spentToday after one day.\r\n    /// @param amount Amount to withdraw.\r\n    /// @return Returns if amount is under daily limit.\r\n    function isUnderLimit(uint amount)\r\n        internal\r\n        returns (bool)\r\n    {\r\n        if (now > lastDay + 24 hours) {\r\n            lastDay = now;\r\n            spentToday = 0;\r\n        }\r\n        if (spentToday + amount > dailyLimit || spentToday + amount < spentToday)\r\n            return false;\r\n        return true;\r\n    }\r\n\r\n    /*\r\n     * Web3 call functions\r\n     */\r\n    /// @dev Returns maximum withdraw amount.\r\n    /// @return Returns amount.\r\n    function calcMaxWithdraw()\r\n        public\r\n        constant\r\n        returns (uint)\r\n    {\r\n        if (now > lastDay + 24 hours)\r\n            return dailyLimit;\r\n        if (dailyLimit < spentToday)\r\n            return 0;\r\n        return dailyLimit - spentToday;\r\n    }\r\n}",
  "sourcePath": "E:\\project\\Chris\\wonderland-money\\truffle_deploy\\contracts\\MultiSigWalletWithDailyLimit.sol",
  "compiler": {
    "name": "solc",
    "version": "0.4.15+commit.bbb8e64f.Emscripten.clang"
  },
  "schemaVersion": "3.4.4",
  "updatedAt": "2022-01-06T12:41:16.986Z",
  "devdoc": {
    "author": "Stefan George - <stefan.george@consensys.net>\r",
    "methods": {
      "addOwner(address)": {
        "details": "Allows to add a new owner. Transaction has to be sent by wallet.\r",
        "params": {
          "owner": "Address of new owner.\r"
        }
      },
      "changeRequirement(uint256)": {
        "details": "Allows to change the number of required confirmations. Transaction has to be sent by wallet.\r",
        "params": {
          "_required": "Number of required confirmations.\r"
        }
      },
      "confirmTransaction(uint256)": {
        "details": "Allows an owner to confirm a transaction.\r",
        "params": {
          "transactionId": "Transaction ID.\r"
        }
      },
      "executeTransaction(uint256)": {
        "details": "Allows anyone to execute a confirmed transaction.\r",
        "params": {
          "transactionId": "Transaction ID.\r"
        }
      },
      "getConfirmationCount(uint256)": {
        "details": "Returns number of confirmations of a transaction.\r",
        "params": {
          "transactionId": "Transaction ID.\r"
        },
        "return": "Number of confirmations.\r"
      },
      "getConfirmations(uint256)": {
        "details": "Returns array with owner addresses, which confirmed transaction.\r",
        "params": {
          "transactionId": "Transaction ID.\r"
        },
        "return": "Returns array of owner addresses.\r"
      },
      "getOwners()": {
        "details": "Returns list of owners.\r",
        "return": "List of owner addresses.\r"
      },
      "getTransactionCount(bool,bool)": {
        "details": "Returns total number of transactions after filers are applied.\r",
        "params": {
          "executed": "Include executed transactions.\r",
          "pending": "Include pending transactions.\r"
        },
        "return": "Total number of transactions after filters are applied.\r"
      },
      "getTransactionIds(uint256,uint256,bool,bool)": {
        "details": "Returns list of transaction IDs in defined range.\r",
        "params": {
          "executed": "Include executed transactions.\r",
          "from": "Index start position of transaction array.\r",
          "pending": "Include pending transactions.\r",
          "to": "Index end position of transaction array.\r"
        },
        "return": "Returns array of transaction IDs.\r"
      },
      "isConfirmed(uint256)": {
        "details": "Returns the confirmation status of a transaction.\r",
        "params": {
          "transactionId": "Transaction ID.\r"
        },
        "return": "Confirmation status.\r"
      },
      "removeOwner(address)": {
        "details": "Allows to remove an owner. Transaction has to be sent by wallet.\r",
        "params": {
          "owner": "Address of owner.\r"
        }
      },
      "replaceOwner(address,address)": {
        "details": "Allows to replace an owner with a new owner. Transaction has to be sent by wallet.\r",
        "params": {
          "newOwner": "Address of new owner.\r",
          "owner": "Address of owner to be replaced.\r"
        }
      },
      "revokeConfirmation(uint256)": {
        "details": "Allows an owner to revoke a confirmation for a transaction.\r",
        "params": {
          "transactionId": "Transaction ID.\r"
        }
      },
      "submitTransaction(address,uint256,bytes)": {
        "details": "Allows an owner to submit and confirm a transaction.\r",
        "params": {
          "data": "Transaction data payload.\r",
          "destination": "Transaction target address.\r",
          "value": "Transaction ether value.\r"
        },
        "return": "Returns transaction ID.\r"
      }
    },
    "title": "Multisignature wallet - Allows multiple parties to agree on transactions before execution.\r"
  },
  "userdoc": {
    "methods": {}
  }
}